:1000000012C02CC02BC02AC029C028C027C026C0BF
:1000100025C024C023C022C021C020C01FC01EC0D4
:100020001DC01CC01BC011241FBECFE5D4E0DEBF25
:10003000CDBF10E0A0E6B0E0EAE8FBE002C005902A
:100040000D92A638B107D9F710E0A6E8B0E001C0DC
:100050001D92A73AB107E1F781D295C5D1CF92B3EE
:100060008F70907F892B82BB9598959A95988AE09E
:1000700090E00197F1F708951F93182F662311F070
:10008000949A01C094989698812F82958F70E7DF9B
:10009000812FE5DF1F91089561E0EEDF089560E0B4
:1000A000EBDF08950F931F9381B38F6781BB86EABF
:1000B0009EE00197F1F782B38F7882BB01E014E0F4
:1000C000C8010197F1F783E0CADFC8010197F1F792
:1000D00083E0C5DFC8010197F1F783E0C0DFC80105
:1000E0000197F1F782E0BBDF88E2D9DF10928C0044
:1000F00088E0D5DF1F910F91089580918C00982F93
:10010000946090938C008C60CADF089580918C007D
:100110008B7F80938C008860C2DF089581E0BFDF11
:1001200084EF91E00197F1F7089582E0B8DF84EF62
:1001300091E00197F1F7089580918C00982F9160DC
:1001400090938C008960ABDF089580918C008E7F46
:1001500080938C008860A3DF089580918C00982F95
:10016000926090938C008A609ADF089580918C0051
:100170008D7F80938C00886092DF089588E18FDF07
:1001800008958CE18CDF089580918C00982F926007
:1001900090938C00866083DF089580918C008D7F22
:1001A00080938C0084607BDF089580918C00982F71
:1001B000916090938C00856072DF089580918C002F
:1001C0008E7F80938C0084606ADF08950F931F9365
:1001D000CF93DF938B0190E08770907023E0880FBE
:1001E000991F2A95E1F780645ADFC0E0D0E0F8015A
:1001F000EC0FFD1F808150DF2196C830D105B9F783
:10020000DF91CF911F910F910895982F611161E0B7
:10021000E62FF0E0EF57FF4F8081890F80683FDFC6
:100220000895CF93DF93EC0102C036DF21968881D9
:100230008823D9F7DF91CF910895DC01FB0140E8D5
:1002400050E020E030E070E361E3CA018A239B23A1
:10025000892B11F0608301C07083319656954795C4
:100260002F5F3F4F2830310581F710820895DF93CB
:10027000CF9300D0CDB7DEB7DB0150961C925097DC
:10028000BC0120E030E040E050E8CA01862397231B
:10029000892B11F480E301C081E3FD01E20FF31F1C
:1002A00080832F5F3F4F2031310519F056954795D8
:1002B000ECCF0F900F90CF91DF910895843491058A
:1002C00009F482C085349105C4F48432910509F49F
:1002D000B3C08532910544F48132910509F4A1C07F
:1002E000829709F0D8C096C08134910509F485C081
:1002F0008234910509F0CFC070C08238910509F4AD
:1003000044C0833891054CF48834910509F46EC0DB
:100310008138910509F0BFC0ADC084389105C9F09E
:100320008838910509F0B7C08091860090918700C8
:100330008830910534F4F2DE80918A00880F816064
:1003400013C04097E4F5EADE80918B00880F81604E
:1003500014C08091860090918700883091053CF40C
:10036000DDDE80918A00880F80938A0008C0409764
:1003700034F5D4DE80918B00880F80938B008091C0
:10038000860090918700019616C08091860090911A
:1003900087008930910544F4C1DE109287001092E5
:1003A000860010928A000BC041974CF4B7DE109281
:1003B0008B0088E090E090938700809386001092F5
:1003C0008900109288000895A9DE80918B00209109
:1003D0008A00829FC001112435C0A0DE80918A006E
:1003E00090E020918B00821B91092CC097DE6091D8
:1003F0008B0080918A00EFD01AC090DE80918B0034
:1004000020918A0030E0280F311D3093A200209304
:10041000A1001CC083DE80918B0090918A00892B03
:1004200006C07CDE80918B0090918A0089238093A6
:10043000A1001092A2000AC071DE80918A0090E0B3
:10044000809590959093A2008093A10080E061E058
:10045000DCDE8091A1009091A20064EA70E007DFE9
:1004600084EA90E0DEDE81E090E090938900809362
:100470008800089553DE10928A0010928B0010922B
:10048000A2001092A1001092890010928800109290
:100490008700109286000895EF92FF920F931F93AA
:1004A000CF93DF9310929F0010929E00C1E0D0E0A6
:1004B00031E2E32E00E117E225E8F22E40C09E0172
:1004C00002C0220F331F8A95E2F728BB86B390E063
:1004D000807F90709093A6008093A5002E2D2A9582
:1004E000F1F760EA70E0A9DE8091A5009091A60086
:1004F000892BE1F0C8010197F1F79E0100909E0061
:1005000002C0220F331F0A94E2F728BB86B390E0A3
:10051000807F90709093A6008093A500009731F0A3
:10052000822B932BCBDE8F2D8A95F1F780919E0045
:1005300090919F00019690939F0080939E008091E0
:100540009E0090919F00843091050CF4B8CFDF910C
:10055000CF911F910F91FF90EF9008958FE087BB8F
:10056000A1DDCBDDDBDD98DF8091880090918900F3
:10057000892BC9F788E060E048DE80918A0090E02E
:1005800060EA70E05ADE80EA90E04BDE80E690E0C0
:1005900048DE80918B0090E063EA70E04EDE83EAF3
:1005A00090E03FDEE0CF0F931F93DF93CF93CDB763
:1005B000DEB7FE013796419151910DE810E0C80178
:1005C00061E170E09F0113D0C8012BDECF91DF9174
:1005D0001F910F910895991B79E004C0991F9617F8
:1005E00008F0961B881F7A95C9F780950895AEE0AC
:1005F000B0E0ECEFF2E09EC28C0177FF02C060E059
:1006000070E8615070407E836D831A83098386E0B1
:100610008C83CE010196BA01A90110D02D813E81B3
:1006200037FD09C0EF81F8852E173F070CF4F9015B
:10063000E00FF11F10822E96E4E098C2ABE0B0E02C
:10064000E3E2F3E069C23C012B015A01FC0117828D
:100650001682838181FD03C06FEF7FEFB9C19AE0FD
:10066000892E1E010894211C311CF3012381F20103
:1006700023FD859123FF81912F01882309F4A5C1D2
:10068000853239F423FD859123FF81912F01853235
:1006900021F490E0B301B6D1E8CF982FFF24EE24E7
:1006A0009924FFE1FF15D0F09B3269F09C3228F4C9
:1006B000903259F0933291F40EC09D3249F090334C
:1006C00069F441E024C052E0F52A84E0F82A28C009
:1006D00098E0F92A25C0E0E1FE2A22C0F7FC29C0F3
:1006E000892F80538A3070F4F6FE05C0989C902CB8
:1006F0001124980E15C0E89CE02C1124E80EF0E2BD
:10070000FF2A0EC09E3229F4F6FC5FC140E4F42AB1
:1007100007C09C3619F450E8F52A02C0983649F40F
:10072000F20123FD959123FF91912F01992309F067
:10073000B8CF892F8554833018F08052833038F435
:1007400044E050E0A40EB51E5FE359830FC093361A
:1007500031F0933779F0933509F052C01FC0F5019D
:100760008081898342E050E0A40EB51E610101E062
:1007700010E011C0F501C080D180F6FC03C06FEF1E
:100780007FEF02C0692D70E042E050E0A40EB51E7C
:10079000C6012DD18C015FE7F52213C0F501C080A1
:1007A000D180F6FC03C06FEF7FEF02C0692D70E0CF
:1007B00042E050E0A40EB51EC6010ED18C0150E8F7
:1007C000F52AF3FE06C018C080E290E0B3011AD10A
:1007D000EA948E2D90E008171907B0F30DC0F601CA
:1007E000F7FC8591F7FE81916F0190E0B3010AD18A
:1007F000E110EA94015010400115110581F7E2C0A3
:10080000943611F0993661F5F7FE08C0F5012081A4
:1008100031814281538184E090E00AC0F5018081FA
:1008200091819C01442737FD4095542F82E090E050
:10083000A80EB91E9FE6F92257FF09C050954095B2
:10084000309521953F4F4F4F5F4FE0E8FE2ACA0198
:10085000B901A1012AE030E001D1D82ED2183FC061
:10086000953729F41F2D1F7E2AE030E01DC01F2D73
:10087000197F9F3661F0903720F4983509F0A5C0B4
:100880000FC0903739F0983709F09FC004C028E0B6
:1008900030E00AC0106114FD146020E130E004C0B3
:1008A00014FD166020E132E017FF08C0F5016081F9
:1008B00071818281938144E050E008C0F50180811C
:1008C0009181BC0180E090E042E050E0A40EB51EB2
:1008D000A101C4D0D82ED2188FE7F82EF122F6FE4F
:1008E0000BC05EEFF522D91438F4F4FE07C0F2FC19
:1008F00005C08FEEF82202C01D2D01C0192DF4FE97
:100900000DC0FE01ED0DF11D8081803319F499EECB
:10091000F92208C01F5FF2FE05C003C08F2D867844
:1009200009F01F5F0F2DF3FC13C0F0FE0EC01E1563
:1009300010F09D2C0AC09D2C9E0C911A1E2D05C0F6
:1009400080E290E0B3015ED01F5F1E15C8F304C0C3
:100950001E1510F4E11A01C0EE2404FF0EC080E35E
:1009600090E0B3014FD002FF1BC001FD03C088E738
:1009700090E00EC088E590E00BC0802F867881F073
:1009800001FF02C08BE201C080E2F7FC8DE290E043
:10099000B30138D005C080E390E0B30133D09A941E
:1009A000D914C8F3DA94F101ED0DF11D808190E0C6
:1009B000B30128D0DD20B1F705C080E290E0B3019B
:1009C00021D0EA94EE20C9F750CEF30166817781F9
:1009D000CB012B96E2E1BCC0FC0105906150704058
:1009E0000110D8F7809590958E0F9F1F0895FC01F8
:1009F0006150704001900110D8F7809590958E0F4E
:100A00009F1F08950F931F93CF93DF938C01EB01EA
:100A10008B8181FF1BC082FF0DC02E813F818C81A5
:100A20009D812817390764F4E881F9810193F983DE
:100A3000E88306C0E885F985802F0995892B31F474
:100A40008E819F8101969F838E8302C00FEF1FEFDF
:100A5000C801DF91CF911F910F910895FA01AA2744
:100A6000283051F1203181F1E8946F936E7F6E5FF1
:100A70007F4F8F4F9F4FAF4FB1E03ED0B4E03CD09F
:100A8000670F781F891F9A1FA11D680F791F8A1F82
:100A9000911DA11D6A0F711D811D911DA11D20D0E9
:100AA00009F468943F912AE0269F11243019305DA3
:100AB0003193DEF6CF010895462F4770405D419394
:100AC000B3E00FD0C9F7F6CF462F4F70405D4A33E1
:100AD00018F0495D31FD4052419302D0A9F7EACFA9
:100AE000B4E0A6959795879577956795BA95C9F7D8
:100AF00000976105710508959B01AC010A2E0694CB
:100B00005795479537952795BA95C9F7620F731F83
:100B1000841F951FA01D08952F923F924F925F92C0
:100B20006F927F928F929F92AF92BF92CF92DF92FD
:100B3000EF92FF920F931F93CF93DF93CDB7DEB762
:100B4000CA1BDB0B0FB6F894DEBF0FBECDBF0994F6
:100B50002A88398848885F846E847D848C849B844D
:100B6000AA84B984C884DF80EE80FD800C811B815B
:100B7000AA81B981CE0FD11D0FB6F894DEBF0FBE8A
:0A0B8000CDBFED010895F894FFCFFA
:100B8A00202020202020202020202020202020205B
:100B9A00202020202020202020202020202020204B
:060BAA000000401454009D
:00000001FF
